{
  "contractName": "TournamentScores",
  "abi": [
    {
      "inputs": [],
      "stateMutability": "nonpayable",
      "type": "constructor"
    },
    {
      "inputs": [
        {
          "internalType": "uint256",
          "name": "",
          "type": "uint256"
        },
        {
          "internalType": "uint256",
          "name": "",
          "type": "uint256"
        }
      ],
      "name": "tournamentMatches",
      "outputs": [
        {
          "internalType": "string",
          "name": "player1",
          "type": "string"
        },
        {
          "internalType": "string",
          "name": "player2",
          "type": "string"
        },
        {
          "internalType": "string",
          "name": "winner",
          "type": "string"
        },
        {
          "internalType": "uint256",
          "name": "pointsPlayer1",
          "type": "uint256"
        },
        {
          "internalType": "uint256",
          "name": "pointPlayer2",
          "type": "uint256"
        }
      ],
      "stateMutability": "view",
      "type": "function",
      "constant": true
    },
    {
      "inputs": [
        {
          "internalType": "uint256",
          "name": "",
          "type": "uint256"
        }
      ],
      "name": "tournamentWinners",
      "outputs": [
        {
          "internalType": "string",
          "name": "",
          "type": "string"
        }
      ],
      "stateMutability": "view",
      "type": "function",
      "constant": true
    },
    {
      "inputs": [
        {
          "internalType": "uint256",
          "name": "_tournamentId",
          "type": "uint256"
        },
        {
          "internalType": "string[]",
          "name": "_players1",
          "type": "string[]"
        },
        {
          "internalType": "string[]",
          "name": "_players2",
          "type": "string[]"
        },
        {
          "internalType": "string[]",
          "name": "_matchesWinners",
          "type": "string[]"
        },
        {
          "internalType": "uint256[]",
          "name": "_pointsPlayers1",
          "type": "uint256[]"
        },
        {
          "internalType": "uint256[]",
          "name": "_pointsPlayers2",
          "type": "uint256[]"
        },
        {
          "internalType": "string",
          "name": "_tournamentWinner",
          "type": "string"
        },
        {
          "internalType": "uint256",
          "name": "_matchesNumber",
          "type": "uint256"
        }
      ],
      "name": "setTournamentMatches",
      "outputs": [],
      "stateMutability": "nonpayable",
      "type": "function"
    },
    {
      "inputs": [
        {
          "internalType": "uint256",
          "name": "_tournamentId",
          "type": "uint256"
        }
      ],
      "name": "getTournamentMatches",
      "outputs": [
        {
          "components": [
            {
              "internalType": "string",
              "name": "player1",
              "type": "string"
            },
            {
              "internalType": "string",
              "name": "player2",
              "type": "string"
            },
            {
              "internalType": "string",
              "name": "winner",
              "type": "string"
            },
            {
              "internalType": "uint256",
              "name": "pointsPlayer1",
              "type": "uint256"
            },
            {
              "internalType": "uint256",
              "name": "pointPlayer2",
              "type": "uint256"
            }
          ],
          "internalType": "struct TournamentScores.Match[]",
          "name": "",
          "type": "tuple[]"
        }
      ],
      "stateMutability": "view",
      "type": "function",
      "constant": true
    },
    {
      "inputs": [
        {
          "internalType": "uint256",
          "name": "_tournamentId",
          "type": "uint256"
        }
      ],
      "name": "getTournamentWinner",
      "outputs": [
        {
          "internalType": "string",
          "name": "",
          "type": "string"
        }
      ],
      "stateMutability": "view",
      "type": "function",
      "constant": true
    },
    {
      "inputs": [],
      "name": "getTournamentId",
      "outputs": [
        {
          "internalType": "uint256",
          "name": "",
          "type": "uint256"
        }
      ],
      "stateMutability": "view",
      "type": "function",
      "constant": true
    }
  ],
  "bytecode": "0x608060405234801561001057600080fd5b5060008081905550611453806100276000396000f3fe608060405234801561001057600080fd5b50600436106100625760003560e01c80633fbf920114610067578063820305631461009b578063cf39f3a2146100cb578063d8c57e85146100e9578063dcb9d51f14610119578063ef59dd5214610149575b600080fd5b610081600480360381019061007c9190610a3c565b610165565b604051610092959493929190610b24565b60405180910390f35b6100b560048036038101906100b09190610b8c565b610350565b6040516100c29190610bb9565b60405180910390f35b6100d3610457565b6040516100e09190610bdb565b60405180910390f35b61010360048036038101906100fe9190610b8c565b610460565b6040516101109190610d95565b60405180910390f35b610133600480360381019061012e9190610b8c565b6106f5565b6040516101409190610bb9565b60405180910390f35b610163600480360381019061015e9190611095565b610795565b005b6001602052816000526040600020818154811061018157600080fd5b9060005260206000209060050201600091509150508060000180546101a590611222565b80601f01602080910402602001604051908101604052809291908181526020018280546101d190611222565b801561021e5780601f106101f35761010080835404028352916020019161021e565b820191906000526020600020905b81548152906001019060200180831161020157829003601f168201915b50505050509080600101805461023390611222565b80601f016020809104026020016040519081016040528092919081815260200182805461025f90611222565b80156102ac5780601f10610281576101008083540402835291602001916102ac565b820191906000526020600020905b81548152906001019060200180831161028f57829003601f168201915b5050505050908060020180546102c190611222565b80601f01602080910402602001604051908101604052809291908181526020018280546102ed90611222565b801561033a5780601f1061030f5761010080835404028352916020019161033a565b820191906000526020600020905b81548152906001019060200180831161031d57829003601f168201915b5050505050908060030154908060040154905085565b6060600060026000848152602001908152602001600020805461037290611222565b9050116103b4576040517f08c379a00000000000000000000000000000000000000000000000000000000081526004016103ab906112c5565b60405180910390fd5b6002600083815260200190815260200160002080546103d290611222565b80601f01602080910402602001604051908101604052809291908181526020018280546103fe90611222565b801561044b5780601f106104205761010080835404028352916020019161044b565b820191906000526020600020905b81548152906001019060200180831161042e57829003601f168201915b50505050509050919050565b60008054905090565b606060006001600084815260200190815260200160002080549050116104bb576040517f08c379a00000000000000000000000000000000000000000000000000000000081526004016104b290611357565b60405180910390fd5b60016000838152602001908152602001600020805480602002602001604051908101604052809291908181526020016000905b828210156106ea57838290600052602060002090600502016040518060a001604052908160008201805461052190611222565b80601f016020809104026020016040519081016040528092919081815260200182805461054d90611222565b801561059a5780601f1061056f5761010080835404028352916020019161059a565b820191906000526020600020905b81548152906001019060200180831161057d57829003601f168201915b505050505081526020016001820180546105b390611222565b80601f01602080910402602001604051908101604052809291908181526020018280546105df90611222565b801561062c5780601f106106015761010080835404028352916020019161062c565b820191906000526020600020905b81548152906001019060200180831161060f57829003601f168201915b5050505050815260200160028201805461064590611222565b80601f016020809104026020016040519081016040528092919081815260200182805461067190611222565b80156106be5780601f10610693576101008083540402835291602001916106be565b820191906000526020600020905b8154815290600101906020018083116106a157829003601f168201915b5050505050815260200160038201548152602001600482015481525050815260200190600101906104ee565b505050509050919050565b6002602052806000526040600020600091509050805461071490611222565b80601f016020809104026020016040519081016040528092919081815260200182805461074090611222565b801561078d5780601f106107625761010080835404028352916020019161078d565b820191906000526020600020905b81548152906001019060200180831161077057829003601f168201915b505050505081565b60005b8181101561090557600160008a81526020019081526020016000206040518060a001604052808a84815181106107d1576107d0611377565b5b602002602001015181526020018984815181106107f1576107f0611377565b5b6020026020010151815260200188848151811061081157610810611377565b5b6020026020010151815260200187848151811061083157610830611377565b5b6020026020010151815260200186848151811061085157610850611377565b5b6020026020010151815250908060018154018082558091505060019003906000526020600020906005020160009091909190915060008201518160000190805190602001906108a192919061094f565b5060208201518160010190805190602001906108be92919061094f565b5060408201518160020190805190602001906108db92919061094f565b506060820151816003015560808201518160040155505080806108fd906113d5565b915050610798565b50600080815480929190610918906113d5565b919050555081600260008a8152602001908152602001600020908051906020019061094492919061094f565b505050505050505050565b82805461095b90611222565b90600052602060002090601f01602090048101928261097d57600085556109c4565b82601f1061099657805160ff19168380011785556109c4565b828001600101855582156109c4579182015b828111156109c35782518255916020019190600101906109a8565b5b5090506109d191906109d5565b5090565b5b808211156109ee5760008160009055506001016109d6565b5090565b6000604051905090565b600080fd5b600080fd5b6000819050919050565b610a1981610a06565b8114610a2457600080fd5b50565b600081359050610a3681610a10565b92915050565b60008060408385031215610a5357610a526109fc565b5b6000610a6185828601610a27565b9250506020610a7285828601610a27565b9150509250929050565b600081519050919050565b600082825260208201905092915050565b60005b83811015610ab6578082015181840152602081019050610a9b565b83811115610ac5576000848401525b50505050565b6000601f19601f8301169050919050565b6000610ae782610a7c565b610af18185610a87565b9350610b01818560208601610a98565b610b0a81610acb565b840191505092915050565b610b1e81610a06565b82525050565b600060a0820190508181036000830152610b3e8188610adc565b90508181036020830152610b528187610adc565b90508181036040830152610b668186610adc565b9050610b756060830185610b15565b610b826080830184610b15565b9695505050505050565b600060208284031215610ba257610ba16109fc565b5b6000610bb084828501610a27565b91505092915050565b60006020820190508181036000830152610bd38184610adc565b905092915050565b6000602082019050610bf06000830184610b15565b92915050565b600081519050919050565b600082825260208201905092915050565b6000819050602082019050919050565b600082825260208201905092915050565b6000610c3e82610a7c565b610c488185610c22565b9350610c58818560208601610a98565b610c6181610acb565b840191505092915050565b610c7581610a06565b82525050565b600060a0830160008301518482036000860152610c988282610c33565b91505060208301518482036020860152610cb28282610c33565b91505060408301518482036040860152610ccc8282610c33565b9150506060830151610ce16060860182610c6c565b506080830151610cf46080860182610c6c565b508091505092915050565b6000610d0b8383610c7b565b905092915050565b6000602082019050919050565b6000610d2b82610bf6565b610d358185610c01565b935083602082028501610d4785610c12565b8060005b85811015610d835784840389528151610d648582610cff565b9450610d6f83610d13565b925060208a01995050600181019050610d4b565b50829750879550505050505092915050565b60006020820190508181036000830152610daf8184610d20565b905092915050565b600080fd5b7f4e487b7100000000000000000000000000000000000000000000000000000000600052604160045260246000fd5b610df482610acb565b810181811067ffffffffffffffff82111715610e1357610e12610dbc565b5b80604052505050565b6000610e266109f2565b9050610e328282610deb565b919050565b600067ffffffffffffffff821115610e5257610e51610dbc565b5b602082029050602081019050919050565b600080fd5b600080fd5b600067ffffffffffffffff821115610e8857610e87610dbc565b5b610e9182610acb565b9050602081019050919050565b82818337600083830152505050565b6000610ec0610ebb84610e6d565b610e1c565b905082815260208101848484011115610edc57610edb610e68565b5b610ee7848285610e9e565b509392505050565b600082601f830112610f0457610f03610db7565b5b8135610f14848260208601610ead565b91505092915050565b6000610f30610f2b84610e37565b610e1c565b90508083825260208201905060208402830185811115610f5357610f52610e63565b5b835b81811015610f9a57803567ffffffffffffffff811115610f7857610f77610db7565b5b808601610f858982610eef565b85526020850194505050602081019050610f55565b5050509392505050565b600082601f830112610fb957610fb8610db7565b5b8135610fc9848260208601610f1d565b91505092915050565b600067ffffffffffffffff821115610fed57610fec610dbc565b5b602082029050602081019050919050565b600061101161100c84610fd2565b610e1c565b9050808382526020820190506020840283018581111561103457611033610e63565b5b835b8181101561105d57806110498882610a27565b845260208401935050602081019050611036565b5050509392505050565b600082601f83011261107c5761107b610db7565b5b813561108c848260208601610ffe565b91505092915050565b600080600080600080600080610100898b0312156110b6576110b56109fc565b5b60006110c48b828c01610a27565b985050602089013567ffffffffffffffff8111156110e5576110e4610a01565b5b6110f18b828c01610fa4565b975050604089013567ffffffffffffffff81111561111257611111610a01565b5b61111e8b828c01610fa4565b965050606089013567ffffffffffffffff81111561113f5761113e610a01565b5b61114b8b828c01610fa4565b955050608089013567ffffffffffffffff81111561116c5761116b610a01565b5b6111788b828c01611067565b94505060a089013567ffffffffffffffff81111561119957611198610a01565b5b6111a58b828c01611067565b93505060c089013567ffffffffffffffff8111156111c6576111c5610a01565b5b6111d28b828c01610eef565b92505060e06111e38b828c01610a27565b9150509295985092959890939650565b7f4e487b7100000000000000000000000000000000000000000000000000000000600052602260045260246000fd5b6000600282049050600182168061123a57607f821691505b60208210810361124d5761124c6111f3565b5b50919050565b7f546f75726e616d656e742077696e6e6572206e6f7420666f756e6420666f722060008201527f7468697320494400000000000000000000000000000000000000000000000000602082015250565b60006112af602783610a87565b91506112ba82611253565b604082019050919050565b600060208201905081810360008301526112de816112a2565b9050919050565b7f546f75726e616d656e74206d617463686573206e6f7420666f756e6420666f7260008201527f2074686973204944000000000000000000000000000000000000000000000000602082015250565b6000611341602883610a87565b915061134c826112e5565b604082019050919050565b6000602082019050818103600083015261137081611334565b9050919050565b7f4e487b7100000000000000000000000000000000000000000000000000000000600052603260045260246000fd5b7f4e487b7100000000000000000000000000000000000000000000000000000000600052601160045260246000fd5b60006113e082610a06565b91507fffffffffffffffffffffffffffffffffffffffffffffffffffffffffffffffff8203611412576114116113a6565b5b60018201905091905056fea264697066735822122093fa10a9740da7df96c9ce50e63ea226b18675c246eef4c6fd099f73793c1e3f64736f6c634300080e0033",
  "immutableReferences": {},
  "source": "// SPDX-License-Identifier: MIT\npragma solidity ^0.8.14;\ncontract TournamentScores{\n\n\tuint mapSize;\n\tmapping(uint256 => Match[]) public tournamentMatches;\n\tmapping(uint256 => string) public tournamentWinners;\n\n\tstruct Match {\n\t\tstring\tplayer1;\n\t\tstring\tplayer2;\n\t\tstring\twinner;\n\t\tuint256\tpointsPlayer1;\n\t\tuint256\tpointPlayer2;\n\t}\n\n\tconstructor(){\n\t\tmapSize = 0;\n\t}\n\n\tfunction setTournamentMatches(uint256 _tournamentId, string[] memory _players1, string[]  memory _players2, string[]  memory _matchesWinners,\n\t\tuint256[] memory _pointsPlayers1, uint256[] memory _pointsPlayers2, string memory _tournamentWinner, uint256 _matchesNumber) public {\n\t\tfor (uint256 i = 0; i < _matchesNumber; i++)\n\t\t\ttournamentMatches[_tournamentId].push(Match(_players1[i], _players2[i], _matchesWinners[i], _pointsPlayers1[i], _pointsPlayers2[i]));\n\t\tmapSize++;\n\t\ttournamentWinners[_tournamentId] = _tournamentWinner;\n\t}\n\n\tfunction getTournamentMatches(uint256 _tournamentId) public view returns (Match[] memory) {\n\n\t\trequire(tournamentMatches[_tournamentId].length > 0, \"Tournament matches not found for this ID\");\n\t\treturn (tournamentMatches[_tournamentId]);\n\t}\n\n\tfunction getTournamentWinner(uint256 _tournamentId) public view returns (string memory) {\n\n\t\trequire(bytes(tournamentWinners[_tournamentId]).length > 0, \"Tournament winner not found for this ID\");\n\t\treturn (tournamentWinners[_tournamentId]);\n\t}\n\n\tfunction getTournamentId() public view returns (uint){\n\n\t\treturn (mapSize);\n\t}\n}\n",
  "sourcePath": "/dapp/contracts/TournamentScores.sol",
  "compiler": {
    "name": "solc",
    "version": "0.8.14+commit.80d49f37.Emscripten.clang"
  },
  "schemaVersion": "3.4.16",
  "updatedAt": "2024-11-20T12:40:03.462Z",
  "networkType": "ethereum",
  "devdoc": {
    "kind": "dev",
    "methods": {},
    "version": 1
  },
  "userdoc": {
    "kind": "user",
    "methods": {},
    "version": 1
  }
}